:100000000C9437010C947E010C947E010C947E01BB
:100010000C947E010C947E010C947E010C947E0164
:100020000C947E010C947E010C94AD180C948119F3
:100030000C94C0130C947E010C947E010C947E01F0
:100040000C947E010C947E010C947E010C947E0134
:100050000C947E010C9426140C947E010C947E0169
:100060000C947E010C947E010C947E010C947E0114
:100070000C947E010C947E010C947E010C947E0104
:100080000C947E010C947E010C947E010C947E01F4
:100090000C947E010C947E010C947E010C947E01E4
:1000A0000C947E010C947E010C947E0129003A0090
:1000B0003B003C003D003E003F004000410000008E
:1000C0004200430044004500460047004800350018
:1000D0001E001F0020002100220023002400250014
:1000E000260027002D002E002A0049004A004B0060
:1000F0002B0014001A000800150017001C0018003F
:100100000C00120013002F00300000004C004D00C6
:100110004E00390004001600070009000A000B0019
:100120000D000E000F0033003400320028000000E4
:1001300000000000E10064001D001B000600190023
:100140000500110010003600370038000000E10003
:10015000000052000000E000E300E20000000000A8
:1001600000002C0000000000E600E3006500000035
:10017000E000500051004F000403300000000A036B
:10018000430055003800300000001A0343006100AE
:100190007000730055006E006C006F0063006B0010
:1001A0006500640000000403090409023B00020129
:1001B00000A0FA0904000001030101000921110156
:1001C00000012240000705810308000A090401001C
:1001D000010300000009211101000122360007057A
:1001E000820320000A1201100100000008EDFE0049
:1001F0000001000102030105010980A10185031A24
:1002000081002A83001601002603009501751081E4
:1002100000C0050C0901A10185041A01002A9C02F5
:10022000160100269C02950175108100C005010988
:1002300006A101050719E029E715002501950875B4
:100240000181029501750881010507190029FF1533
:100250000026FF009506750881000508190129058B
:10026000950575019102950175039101C000112456
:100270001FBECFEFDAE0DEBFCDBF04B603FE27C05E
:1002800080918B0290918C02A0918D02B0918E0290
:100290008730904BA740B04BD1F410928B02109254
:1002A0008C0210928D0210928E0214BE84B7877F4A
:1002B00084BF0FB6F894A895809160008861809300
:1002C0006000109260000FBEE0E0F8E3099511E0D5
:1002D000A0E0B1E0EAE4F7E302C005900D92A63891
:1002E000B107D9F722E0A6E8B1E001C01D92AB3812
:1002F000B207E1F70E94DE150C947B1B0C94000002
:1003000008950895089581E0089581E008950C947A
:1003100085011F93CF93DF9300D000D00F92CDB70C
:10032000DEB749835A836B832091AC0189819A811E
:1003300021111BC06623A9F00E943D11182F682FC0
:1003400089819A810E94E91069817A81812F0F90B9
:100350000F900F900F900F90DF91CF911F910C9401
:1003600029020E941511182FEFCF0E943D116981BB
:100370007A81EDCFFC01408151816281738184815A
:100380000C9489010E948112811102C00E941E13E7
:100390000C942B040C942D040C94820181E008959C
:1003A0000C94CE01CF93C82F0E94CC018C2FCF91FB
:1003B0000C94D00108950E94290C0E94DA012FEFBD
:1003C00084E39CE0215080409040E1F700C00000B1
:1003D0000C944A140F931F93CF93DF93EC010E9468
:1003E000BA018C01BE010E948701882329F1BE0158
:1003F000C8010E94FF058823F9F0BE01C8010E94D0
:1004000040068823C9F0BE01C8010E946307882303
:1004100099F08A81882339F001158CE5180751F08D
:100420000E3D1C4579F0CE01DF91CF911F910F91C8
:100430000C9483010E94DB0180E0DF91CF911F913A
:100440000F9108950E941E13F7CF90E080E0089569
:100450000895972F70E021E1929F600D711D112486
:10046000FB0196E6899FE00DF11D1124EE0FFF1FA1
:10047000E455FF4F859194910895FC01EE0FFF1F05
:10048000E858FE4F859194910895CF93DF930E9491
:1004900029020E945103EC01811520E5920708F022
:1004A00041C0811530E4930708F0B4C0803E910547
:1004B00018F5803C910508F09DC0883A910570F4CC
:1004C000853A910508F08EC081309105F9F00097CA
:1004D000E9F00497D8F4D0E0C0E018C08F3B910554
:1004E000D0F7C85AD0E0CC0FDD1FC35FDE4F0990B4
:1004F000D881C02DD4640AC08115904258F4C1152A
:1005000081E0D80718F4C83ED10528F7CE01DF9165
:10051000CF910895C11590E3D90708F071C0CE01BD
:100520009F706AC0811525E5920758F5811534E55D
:10053000930708F09EC0811542E5940750F4C11559
:1005400081E5D80708F469C0DC2FCC27C16FD06AD9
:10055000DDCF982F969596959E0123703327C11570
:10056000D34508F077C0C1E0D0E002C0CC0FDD1F5A
:100570002A95E2F720E2929FC0011124C82BD92BC3
:1005800067C0C11589E5D807A8F4C11598E5D90752
:1005900008F074C0C11526E5D20708F09CCF8C2F57
:1005A0000E94E803C82FD0E0DC2FCC27CC27DF71D6
:1005B000D062ACCFC1153AE5D30708F464C0CE01D0
:1005C00090568115904208F086CF8D2F8F710E9432
:1005D000E80390E0982F882788279F719C012C2B97
:1005E000E901E6CFC55AD0E0C55CDE4FC881D0E056
:1005F000D0648CCF805C91090E943D02EC0186CFD3
:10060000CE019927D3FF03C0EC01D86C7FCFEC015A
:10061000D06C7CCFDF70D06A79CFCE01E4E09695C4
:100620008795EA95E1F783702C2F26952695237000
:1006300090E2299F90011124382B8C2F8370C1E008
:10064000D0E002C0CC0FDD1F8A95E2F7C22BD32B7E
:10065000DC685CCFC1E0D0E002C0CC0FDD1F2A9582
:10066000E2F730E2939FC0011124C82BD92BDA683E
:100670004DCFD82FCC27C46FD06A48CFDC2FCC27E2
:10068000C06FD06A43CF8C2F8F700E94E80334E094
:10069000D695C7953A95E1F7CF709C2FEC01D069BC
:1006A00035CF82389105B1F1B0F48133910509F469
:1006B00075C048F48932910509F469C08A32910500
:1006C00009F473C008958533910509F459C089333D
:1006D000910501F10895833E9105A9F138F4803E1A
:1006E0009105F9F0823E910549F10895863E910504
:1006F000A9F1873E9105C9F1843E910519F5209134
:100700007D0221FF1FC080917C0284FD14C087EE12
:1007100090E0089520917C022370A1F080EE90E09B
:10072000089520917C0220FD47C030917D0230FF6A
:1007300009C024FF44C090E080E004C020917C0206
:1007400022FDF7CF089520917C0222FD3BC030911D
:100750007D0230FDE3CF24FFF5CFEDCF20917C0269
:1007600023FFF0CF24FDE7CFD2CF20917C0223FDE1
:100770002CC030917D0231FFEECF84EE90E00895E1
:1007800020917C0225FFDECF89E290E00895209140
:100790007C0225FFD7CF85E390E0089520917C026D
:1007A00026FFD0CF8AE290E0089520917C0226FFB8
:1007B000C9CF81E390E0089589E390E0089583EE46
:1007C00090E0089582EE90E0089586EE90E008951E
:1007D00090917C0292FF06C0282F28712830F9F4EE
:1007E000877F846093FF06C0282F28712831F1F499
:1007F000877E846120917D0220FF06C0382F3871EA
:100800003830D9F4877F816021FF06C0282F2871F6
:100810002831D1F4877E816194FD877E0895282F49
:1008200024712430F9F68B7F8860DCCF282F247167
:10083000243101F78B7E8861DDCF382F3171313063
:1008400019F78E7F8860E0CF282F2171213121F7A1
:100850008E7E8861E1CF0C9480010C94810194E03C
:10086000899FF0011124E05AFD4F608171818281DE
:10087000938108950895AFE4B1E061E070E08D9157
:10088000E82FE295EF70F0E041A18F709B0101C06D
:10089000220F8A95EAF7922F9095942391A382A133
:1008A000822B82A381E0A535B80749F7AEE3B1E01A
:1008B00061E070E08D91E82FE295EF70F0E041A1EA
:1008C0008F709B0101C0220F8A95EAF7922F9095B5
:1008D000942391A382A1822B82A381E0AF34B80735
:1008E00049F7E8E4F2E0A0E6B2E080E692E0119297
:1008F0001192119211921D921D921D921D928E17AE
:100900009F07A9F786E00E9456050C94C2012F921A
:100910003F924F925F926F927F928F929F92AF928F
:10092000BF92CF92DF92EF92FF920F931F93CF93DC
:10093000DF93CDB7DEB728970FB6F894DEBF0FBEB2
:10094000CDBF28E432E038872F836FE471E010E0F8
:10095000AF81B885CD90DD90ED90FC901397FD01AF
:100960001192119211921192F887EF83DB018D9110
:10097000BD01E82FE295EF70F0E091A18F70222485
:100980002394312C01C0220C8A95EAF7892F822901
:1009900081A382A1022D0095802382A3B0EABA959B
:1009A000F1F72EE331E03C832B8390E080E04F8130
:1009B0005885445051095E834D83AB81BC816D9055
:1009C000BC83AB83262D22952F7030E0D901909601
:1009D0002C91AD81BE818D909D90AD90BC9030E00A
:1009E000B62DBF7002C035952795BA95E2F720FD68
:1009F00059C021E030E040E050E0082E04C0220F52
:100A0000331F441F551F0A94D2F729013A01842845
:100A10009528A628B728AD81BE818D929D92AD9272
:100A2000BC92139701968131910539F681A1082373
:100A300001A382A1822982A381E08D909D90AD9037
:100A4000BC908C149D04AE04BF0409F480E0182B04
:100A5000EF81F885E056F24009F07ACF212F46E089
:100A600060E672E088E492E00E9457050E94CA01A5
:100A7000812F28960FB6F894DEBF0FBECDBFDF9151
:100A8000CF911F910F91FF90EF90DF90CF90BF908B
:100A9000AF909F908F907F906F905F904F903F901E
:100AA0002F900895412C512C3201B1CF0895FF921F
:100AB0000F931F93CF93DF93F82ED92F8B01C42F61
:100AC000222349F081E0809388010E94F0139093E3
:100AD00087018093860180918801882399F0809115
:100AE0008601909187010E94FC13069758F0EF2D24
:100AF000FD2FD80190E080E0D0E08C179D0744F0F6
:100B000010928801DF91CF911F910F91FF9008956E
:100B100001911191219131910D931D932D933D934D
:100B20000196EBCF0F931F93CF93DF93C62FD42F54
:100B3000022FFC0182818823C9F060938B010E94FF
:100B4000F01390938A018093890180E28C0F8830A2
:100B500008F050C0C77081E001C0880FCA95EAF75D
:100B6000DF91CF911F910F910C94D50910918B01BA
:100B7000161335C08091890190918A010E94FC135F
:100B8000883C910560F5C0E2CD0F1D17B9F080E2F9
:100B9000810F883040F4177081E001C0880F1A95EA
:100BA000EAF70E94DC09C83048F481E09D2F977075
:100BB00001C0880F9A95EAF70E94D509802F0E94FC
:100BC000C209C830B8F4D77081E001C0880FDA9547
:100BD000EAF7DF91CF911F910F910C94DC0980E22D
:100BE0008C0F883038F4C77081E001C0880FCA9537
:100BF000EAF7EFCFDF91CF911F910F9108959C01FC
:100C0000CB01233F4CE5340731F190F4283DFCE55E
:100C10003F07E9F0293D4CE5340769F1273D3C45A4
:100C200079F426E241EE61EE0E94920580E008959B
:100C3000253FFCE53F07B9F090F0263F3C45B9F071
:100C4000FC0182818823D1F010928B01089527E264
:100C500045EE65EEE9CF26E241EE60EEE5CF27E214
:100C600045EE64EEE1CF26E241EE62EEDDCF27E213
:100C700045EE66EED9CF28E241E0EBCF81E0089562
:100C8000CF93DF93EC01FB018281882309F419C122
:100C9000C230FCE5DF07C0F1C6319CE5D90730F072
:100CA0009E012A5F3C452930310570F50E9494125F
:100CB00090937D0280937C02C031ECE5DE0709F45D
:100CC000CFC008F05BC0C8308CE5D80709F4B6C0C7
:100CD00088F5C430ECE5DE0709F4A8C0C0F4C230E2
:100CE0008CE5D80709F49CC080917C028260C330F7
:100CF000DC4509F498C080917C0290917D020E94AD
:100D0000A2120E94290C80E0DF91CF91089580917A
:100D10007C028061C630ECE5DE0709F484C0809176
:100D20007C028860C730DC4508F47DC080917C027D
:100D3000806279C0CC308CE5D80709F489C070F4A2
:100D400080917C028C60CA30ECE5DE0709F46BC050
:100D500008F478C080917C028E7F65C0CE308CE52F
:100D6000D80709F479C080917C028B7FCF30DC45B5
:100D700008F459C080917C028F7E55C0CB3FECE5D2
:100D8000DE0709F457C030F5C3318CE5D80709F404
:100D90006FC078F4C131ECE5DE0709F465C0C231FB
:100DA000DC4509F0A8CF0E94290C80917C028F7746
:100DB0003AC0C5318CE5D80709F462C008F476C0A2
:100DC00080917D028160CA3FDC4509F094CF809319
:100DD0007D0291CFCF3FFCE5DF0709F44DC088F4D9
:100DE00080917D028D7FCD3F9CE5D90781F3809175
:100DF0007D028E7FCE3FDC4550F380917D02836083
:100E0000E6CFC130FDE5DF0709F459C008F444C05E
:100E100080E0C230DD4509F06ECF0E9420136BCF19
:100E200080917C02816080937C0265CF80917C02FE
:100E30008460F9CF80917D028260C9CF80917C026D
:100E40008064F1CF0E94290C80917C028068EBCFF6
:100E500080917C028D7FE7CF80917C02877FE3CFFA
:100E600080917C028F7DDFCF80917C028F7BDBCFF6
:100E700080917C02837FD7CF80917D028C7FA7CF2A
:100E800080917C0282FB992790F921E0922790FBC8
:100E900082F990FB83F9C7CF80917D02982F9095BE
:100EA00091708E7F892B90FB81F991CF0E94290C44
:100EB00090917C02892F97FB87F98058B4CF81E00D
:100EC000ACCF81E021CFCF93DF93EB0186319C45FE
:100ED00011F50E94D2119A81992399F08A7A91E0B2
:100EE00009F490E090938C01811109C089E20E947D
:100EF000AD110E941E1280E0DF91CF91089585E32D
:100F0000F6CF80918C01811104C089E20E94B41156
:100F1000F0CF85E3FBCF81E0EFCF909392018093F8
:100F200091010895E0919101F0919201309721F0A3
:100F30000190F081E02D099480E00895E091910105
:100F4000F0919201309721F00280F381E02D099415
:100F5000089520918F01309190012817390771F081
:100F60009093900180938F01E0919101F091920113
:100F7000309721F00680F781E02D099408952091A3
:100F80008D0130918E012817390771F090938E01F1
:100F900080938D01E0919101F0919201309721F0C1
:100FA0000084F185E02D0994089585B7806885BF98
:100FB00085B7806885BF0895089508950C94DC076F
:100FC00008950C94E0070E94D5070E94DD070C9459
:100FD000DE0781E008950E94E7130E943B040E940F
:100FE0006E140C94E1072F923F924F925F926F9292
:100FF0007F928F929F92AF92BF92CF92DF92EF92A9
:10100000FF920F931F93CF93DF93CDB7DEB72B974C
:101010000FB6F894DEBF0FBECDBF0E9487040E94BA
:10102000E907882309F490C044E9242E41E0342ED6
:1010300010E000E00B87802F0E942F044B015C0121
:10104000F10141905190619071901F014814590431
:101050006A047B0409F472C080913B0281FD0E9406
:101060003A0480E0C12CD12C7601C3944824592441
:101070006A247B24B301A2014C215D216E217F21D2
:10108000452B462B472B09F451C08E83FB85FF83EC
:101090008C209D20AE20BF2081E089288A288B28C3
:1010A00009F480E088870E94F0138160782F9A8786
:1010B00089874E815F8168858A850E94CE08000FEE
:1010C000111F000F111FF801EC56FE4F8081918116
:1010D000A281B3818C259D25AE25BF258083918378
:1010E000A283B3830E949207909193018917E9F13B
:1010F0000E949207809393012B960FB6F894DEBF5F
:101100000FBECDBFDF91CF911F910F91FF90EF9058
:10111000DF90CF90BF90AF909F908F907F906F9017
:101120005F904F903F902F900C94D2018F5FCC0C2A
:10113000DD1CEE1CFF1C813109F09CCF0F5F1F4F9F
:101140000630110509F076CF8FEF89838A831B82E1
:101150000E94F0138160782F9D838C8349815A818E
:101160006B818D810E94CE08BDCF2B960FB6F8946F
:10117000DEBF0FBECDBFDF91CF911F910F91FF90CA
:10118000EF90DF90CF90BF90AF909F908F907F9027
:101190006F905F904F903F902F900895CF93DF9383
:1011A000CDB7DEB72B970FB6F894DEBF0FBECDBF1D
:1011B0004F83588769877A878B871E821D8285E0D7
:1011C000FE013796DE01119601900D928A95E1F7A6
:1011D00049815A816B817C818D819E812B960FB6CE
:1011E000F894DEBF0FBECDBFDF91CF910C94C90E36
:1011F000FC01808191810C947F11882309F472C0D5
:101200008238B9F40E94920781FD6CC089E30E9484
:10121000AD110E941E122FEF81EE94E0215080400C
:101220009040E1F700C0000089E30E94B4110C94E3
:101230001E128338A1F40E94920780FD53C083E5FB
:101240000E94AD110E941E122FEF81EE94E02150FA
:1012500080409040E1F700C0000083E5E6CF84388D
:10126000A1F40E94920782FD3DC087E40E94AD1167
:101270000E941E122FEF81EE94E02150804090409A
:10128000E1F700C0000087E4D0CF9CEF980F913ABF
:1012900018F40E94AD11CBCF90E2980F983050F423
:1012A000E82FE77081E001C0880FEA95EAF70E9415
:1012B000D511BDCFEBE5E80FE33038F4F0E0ED57A2
:1012C000FE4F808190E00C94A907885A873150F432
:1012D000E82FF0E0EE0FFF1FEB5AFE4F8081918167
:1012E0000C94BF070895882309F44BC0823871F429
:1012F0000E94920781FF45C089E30E94AD110E94C0
:101300001E1289E30E94B4110C941E12833859F402
:101310000E94920780FF35C083E50E94AD110E94B4
:101320001E1283E5EFCF843859F40E94920782FFA2
:1013300028C087E40E94AD110E941E1287E4E2CF0C
:101340009CEF980F913AF0F290E2980F983050F499
:10135000877091E001C0990F8A95EAF7892F0E9462
:10136000DB11D2CF9BE5980F933020F490E080E022
:101370000C94A907885A873120F490E080E00C94FF
:10138000BF070895CF93C82F0E94FD08C93349F4C1
:101390002FEF87EE93E0215080409040E1F700C0AE
:1013A00000008C2FCF910C947309882321F00E94A8
:1013B000D5110C941E120895882321F00E94DB1190
:1013C0000C941E120895BF92CF92DF92EF92FF927B
:1013D0000F931F93CF93DF936C01D62FC72FFC0180
:1013E000058102950F70128111110E94F2110E9465
:1013F000CB11E82E882371F01123B1F080E28D0F1C
:10140000883090F082E00E9469120E94CB1191E036
:10141000E82EE926BC2EB2949FE0B922EB2DF0E035
:10142000E358F44E0C94331BE12CF4CF0C2F0F70C7
:10143000C07F11F00295007F1123A9F0002359F01D
:1014400080E28D0F883010F0D11109C0802F0E94EA
:10145000D5110E941E128D2F0E94FD0814C0802FEE
:101460000E94E511F6CF8D2F0E947309002359F0D9
:1014700080E28D0F883010F0D1112CC0802F0E9497
:10148000DB110E941E122B2D2850330B2430310506
:1014900020F40E9492070E94D201EE2009F493C129
:1014A0000E94C71180FD8FC1F60112820E94C111F6
:1014B0000E944D10C6010E94ED0B0E94C111DF91E8
:1014C000CF911F910F91FF90EF90DF90CF90BF9041
:1014D0000C946E10802F0E94EB11D3CFFC2FFF7065
:1014E000FF2EC07FC03219F0F29480EFF822DD2386
:1014F00069F0D13049F1112391F1002351F1F60146
:10150000858180FFA8CF8F70858323C0112381F050
:10151000011106C00E9405128F290E94D509B3CF80
:101520000130C1F70E9405128F290E940B12ABCF28
:10153000011106C00E9414128F2D0E94DC09A3CF56
:10154000013009F4A0CFF6CF112329F0063008F0BE
:101550009ACF8F2DE2CF053008F095CFEDCF002345
:1015600059F3D93349F4FFEF27EE33E0F15020402F
:101570003040E1F700C000008D2F0E94730983CF37
:101580008C2F86958695837069F0813009F07BCF2A
:101590008D2F9C2F9370111102C090E080E00E946B
:1015A000BF0771CF8D2F9C2F9370111102C090E057
:1015B00080E00E94A90767CF8C2F837009F041C09B
:1015C000111161CF4D2F429546954770440F440F3E
:1015D0000D2F0F7010E030E020E0042E04C0000F4B
:1015E000111F221F331F0A94D2F760E070E0CB0175
:1015F000D4FF0FC06FE070E080E090E004C0660FA1
:10160000771F881F991F4A95D2F76095709580952E
:101610009095C695C695C370602B712B822B932B2A
:10162000C23049F058F4C13019F00E94FF0F2BCF9F
:101630000E94ED0F28CF0E94111025CF0E94EB0FC2
:1016400022CF8695112311F08C2F8170882309F405
:101650001ACF4D2F429546954770440F440F0D2FDA
:101660000F7010E030E020E0042E04C0000F111FC6
:10167000221F331F0A94D2F760E070E0CB01D4FF41
:101680000FC06FE070E080E090E004C0660F771F4D
:10169000881F991F4A95D2F760957095809590950F
:1016A000C695C695C370602B712B822B932BC230CD
:1016B00049F058F4C13019F00E94C410E4CE0E94E1
:1016C000B210E1CE0E94D610DECE0E942710DBCEF3
:1016D000CF70112329F08C2F0E944D108D2F1DCF1C
:1016E0008D2F0E94DC098C2F0E946E10CCCED23F31
:1016F00089F160F4D03FC9F0D13F29F1112309F4F9
:1017000042C00111A8CE8C2F8F7121C0D33F39F177
:10171000D43FA1F7112369F1CF718C2F0E944D1096
:1017200063E08C2F0E945412AECE112341F005309D
:1017300008F0A9CE8C2F8F710E949110A4CE063094
:1017400008F0A1CEF7CF8C2F8F71112369F20E9480
:101750004D1099CE8C2F8F711123C9F3C5CF112352
:1017600029F08C2F8F710E9438108DCE0E9433107B
:101770008ACE81E00E946912023008F484CE82E0B1
:101780000E94691280CE002359F0D93309F0F4CEBB
:101790008FEF97EEE3E081509040E040E1F7EACE32
:1017A0008C2F8F71A1CF4C2F4F706D2FC6010E94CF
:1017B00025020E94630F67CE4C2F4F706D2FC6011C
:1017C0000E94280260CEDF91CF911F910F91FF9070
:1017D000EF90DF90CF90BF9008950F931F93CF931A
:1017E000DF93EC018B819C81892B29F08881998181
:1017F00089238F3F29F4DF91CF911F910F91089595
:10180000CE010E94EA018823B1F3688179818A813F
:101810000E9489118C010E94E8100E94EA0FB80111
:10182000CE01DF91CF911F910F910C94E3090E949B
:10183000F2110E9402120E941E1290E080E00E94AB
:10184000A90790E080E00C94BF070E94BB110C94A4
:10185000170C0E94E2110C94250CE92FE295EF7011
:10186000E250EE3070F4F0E0E357F44E0C94331B8A
:10187000803F19F020F4883E20F481E00895843FF1
:10188000E1F380E00895883EC0F3813FD1F7F5CFC2
:1018900093FB882780F908950E947F110C942D0CEA
:1018A000CF93DF9300D000D00F92CDB7DEB70F906B
:1018B0000F900F900F900F90DF91CF910895CF93DD
:1018C000DF9300D000D000D0CDB7DEB726960FB69C
:1018D000F894DEBF0FBECDBFDF91CF9108951F9367
:1018E000CF93DF93C091AD0116E08091AE018C13D0
:1018F00004C0DF91CF911F910895D0E01C9FF001AB
:101900001D9FF00D1124E155FE4F408151816281F0
:101910007381848195810E945F0C2196C770E5CF09
:101920004091DF015091E0016091E1017091E2018D
:101930008091E3019091E4010C945F0C1F93CF938D
:10194000DF938091E401807FC1F48091E1018823DD
:10195000A1F08091AD01C091AE016091DF01709165
:10196000E0014091E2015091E301D62FD723DA0143
:10197000A095B09516E0C81304C0DF91CF911F91D8
:10198000089590E04115510511F0DF3F31F40196C3
:101990008770F1CF2A0F3B1F17C0189FF001199FC6
:1019A000F00D1124E155FE4F21812713F0CF208146
:1019B0002613EDCF22812111EACF23813481241710
:1019C000350740F3241B350B283C310500F72091E7
:1019D000E4012F7020612093E40126E0289FF001AC
:1019E000299FF00D1124EC54FE4F80818F7080618F
:1019F00080838FED91E00E94ED0BDF91CF911F91DD
:101A00000C946F0CBF92CF92DF92EF92FF920F93E4
:101A10001F93CF93DF93CDB7DEB761970FB6F894DE
:101A2000DEBF0FBECDBF8C0185E0F801DE011D9643
:101A300001900D928A95E1F7D8014C9111965C9135
:101A400011971296EC9012978091E2019091E30128
:101A5000009709F47FC12091DF013091E001622FEE
:101A600063236F3F09F476C11396CD90DC90B0905C
:101A7000E101BB2009F411C1C816D906D0F1F60165
:101A8000E81BF90BCF01FF24F394883C910508F083
:101A9000F12C8091E401982F907FFF2009F4B8C0C9
:101AA00091117FC0FE2C351329C0241327C0E110EB
:101AB00025C08F7080618093E4010E94900C8FEDAF
:101AC00091E00E94ED0B8091E401D80115968C9372
:101AD0008F2D61960FB6F894DEBF0FBECDBFDF919C
:101AE000CF911F910F91FF90EF90DF90CF90BF901B
:101AF0000895809590958C0D9D1DC5CFCD2829F01A
:101B0000852F84238F3F09F041C180E0B82FB17049
:101B1000DB2E80FF3CC08091AD012091AE0136E00C
:101B2000821315C04D875E878D859E850E947F112B
:101B3000292F22952F702230F0F0243018F59F7055
:101B4000F1F0F8019581907FD1F4D12C1EC090E086
:101B5000389FF001399FF00D1124E155FE4F61814E
:101B6000651306C06081641303C06281E6120FC072
:101B700001968770D5CF9F7011F0882331F3805E76
:101B8000883018F3C8010E94ED0BFD2CA1CFEE2088
:101B900009F49ECF8091E40181608093E401F12CEF
:101BA00097CF351306C0241304C0D801EE2009F4E2
:101BB0009AC04D875E878D859E850E944C0C882338
:101BC00019F1EE2009F18091E401803270F020914A
:101BD000DF013091E00138872F831986DB86CA86C2
:101BE0008C87CE0107960E94ED0B86E0F801AFEDE1
:101BF000B1E001900D928A95E1F70E949E0C0E943F
:101C0000900CFF24F39464CFC8010E94ED0BF9CF30
:101C1000911113C07C2DD98AC88A6E2D89890E94A2
:101C2000500C8FED91E00E94ED0B86E0EFEDF1E0BE
:101C3000DF011D928A95E9F763C0351312C02413A2
:101C400010C0E1100EC0F8018583C8010E94ED0BA1
:101C5000EFEDF1E086E0DF011D928A95E9F7FB2CBC
:101C600037CF4D875E878D859E850E944C0C8823DB
:101C700059F2EE2049F28091E401803208F4B5CFA8
:101C80002091DF013091E0013A8329831B82DD82BC
:101C9000CC828E83CE010196A6CFC816D90698F1C4
:101CA000F601E81BF90BCF01F12C883C910508F0F7
:101CB00049C0FE2CEE2009F4A7CF351332C02413FF
:101CC00030C08091E40180FD23C0982F907F01F106
:101CD000D80115968C931597903F39F0982F907FE7
:101CE000905F8F70892B15968C93C8010E94ED0B25
:101CF00086E0F801AFEDB1E001900D928A95E1F731
:101D00000E94900CE5CE809590958C0D9D1DCCCFBA
:101D100086E0F801AFEDB1E001900D928A95E1F710
:101D2000D7CE4D875E878D859E850E944C0C811194
:101D30005CCF8091E40181608093E401C8010E943E
:101D4000ED0BC6CE7C2DD98AC88A6E2D89890E945A
:101D5000500C6BCFEE2009F457CF4D875E878D85F1
:101D60009E850E944C0CF82E882309F44DCF86E006
:101D7000F801AFEDB1E001900D928A95E1F78FED9A
:101D800091E00E94F8080E949E0CBACF81E08E2557
:101D9000BDCE1F93CF93DF93CDB7DEB72C970FB691
:101DA000F894DEBF0FBECDBF4F83588769877A870F
:101DB0008B879C87CE0107960E94020D882369F0CD
:101DC0008A859B85892B39F04F815885842F8523FF
:101DD0008F3F09F071C016E05FC086E0FE013796C4
:101DE000DE01119601900D928A95E1F78A859B8517
:101DF000892B89F388859F8189238F3F61F3209107
:101E0000AE0130E0C9010196877099274091AD017C
:101E10004817190671F40E94290C1092AE01109215
:101E2000AD0186E0EFEDF1E0DF011D928A95E9F763
:101E3000D2CF96E0929FD001939FB00D1124A1556F
:101E4000BE4FFE01319601900D929A95E1F7809375
:101E5000AE010E946F0CBFCF819FC001112481553C
:101E60009E4F0E94020D8823E9F0E091AD011E9F74
:101E7000F0011124E155FE4F40815181628173814F
:101E8000848195810E945F0C8091AD0190E0019664
:101E9000877099278093AD018091AD019091AE013B
:101EA0008913DACF2C960FB6F894DEBF0FBECDBFE4
:101EB000DF91CF911F91089569857A858B859C85E7
:101EC0000E945F0C88CFEF92FF920F931F93CF93E6
:101ED000DF938C01892B81F0F12CEE24E394E8014F
:101EE0002196F8018491843770F4843008F05FC043
:101EF0008130B1F08230A1F1DF91CF911F910F912C
:101F0000FF90EF900895853709F44CC008F43DC068
:101F10009CE7980F903780F78F770E94730949C02C
:101F20000E5F1F4FFE01849190E2980F983060F48D
:101F30008770FE2D01C0FF0F8A95EAF78F2F0E9450
:101F4000F5110E941E1202C00E94FD088F2D8150C3
:101F500030F2EFE9FFE03197F1F700C00000F7CF72
:101F60000E5F1F4FFE01849190E2980F983050F45D
:101F70008770FE2D01C0FF0F8A95EAF78F2F0E9410
:101F8000FB11DFCF0E947309E1CF0E5F1F4FFE01EF
:101F9000C491C150D8F28FE99FE00197F1F700C0DA
:101FA0000000F7CF0E5F1F4FFE01F490CFCF0E94CD
:101FB000FD088E01CBCF08950C94DB0F0E94DC0F3F
:101FC00060932A0270932B0280932C0290932D022F
:101FD0000C94170C08950C94DE0F0F931F9300912F
:101FE0002A0210912B0220912C0230912D02602B9D
:101FF000712B822B932B1F910F910C94DE0F0F935B
:102000001F9300912A0210912B0220912C023091F3
:102010002D0260237123822393231F910F910C942F
:10202000DE0F0F931F9300912A0210912B02209133
:102030002C0230912D0260277127822793271F9150
:102040000F910C94DE0F0C94DB0F0C9423100E9464
:1020500025106093260270932702809328029093A4
:1020600029020C94170C60E070E0CB010C9427104F
:102070000F931F9341E050E060E070E08A019B0104
:1020800004C0000F111F221F331F8A95D2F7C90108
:10209000B8011F910F910C9427100F931F9341E0EB
:1020A00050E060E070E004C0440F551F661F771FCA
:1020B0008A95D2F78091260290912702A09128025A
:1020C000B09129028A019B01082B192B2A2B3B2B4B
:1020D000C901B8011F910F910C9427100F931F9302
:1020E00041E050E060E070E004C0440F551F661FFF
:1020F000771F8A95D2F7CB01BA01609570958095CC
:10210000909500912602109127022091280230918B
:10211000290260237123822393231F910F910C9432
:1021200027100F931F9341E050E060E070E004C07F
:10213000440F551F661F771F8A95D2F7809126029C
:1021400090912702A0912802B09129028A019B0157
:10215000082719272A273B27C901B8011F910F918A
:102160000C9427100F931F930091260210912702C1
:102170002091280230912902602B712B822B932B06
:102180001F910F910C9427100F931F93009126021B
:102190001091270220912802309129026023712397
:1021A000822393231F910F910C9427100F931F9359
:1021B00000912602109127022091280230912902D5
:1021C00060277127822793271F910F910C94271066
:1021D000089521E1929F800D1124982F977041E07E
:1021E00001C0440F9A95EAF786958695869595E005
:1021F000899FF0011124EB51FE4F90E080E070E0E8
:102200005191DF0111979B01082E02C03695279549
:102210000A94E2F7217021952527242325272C9362
:1022200001968530910561F7089521E1929F800D17
:102230001124982F977086958695869525E0829F24
:10224000F0011124EB51FE4F50E040E080E021917D
:1022500030E0092E02C0369527950A94E2F72170E6
:102260003327042E01C0220F0A94EAF7822B4F5F16
:102270005F4F4530510559F70895BF92CF92DF92D5
:10228000EF92FF920F931F93CF93DF938C01C09037
:102290002602D0902702E0902802F0902902809137
:1022A0002A0290912B02A0912C02B0912D02C82AF3
:1022B000D92AEA2AFB2ACFE1D0E0BC2ED701C601F9
:1022C0000C2E04C0B695A795979587950A94D2F7DA
:1022D00080FD0EC0219788F7B12C8B2DDF91CF9117
:1022E0001F910F91FF90EF90DF90CF90BF900895D6
:1022F000B8018C2F0E944502019761F3EECFCF9376
:10230000DF93EC010E943D11BE01DF91CF910C944F
:1023100045021F93CF93DF93EB019091AC0199237A
:1023200031F0CB01DF91CF911F910C947F11882365
:1023300079F0CB010E943D11182F682FCE010E9429
:10234000E910BE01812FDF91CF911F910C944502BE
:10235000CB010E941511182FF4CF682F8091000136
:10236000909101010C945E13682F8091000190916F
:1023700001010C94601380910001909101010C9473
:10238000621380912E02859585958595089580919B
:102390002E028770089590912E02977081E009F4C3
:1023A00080E0089580913A02089590913A02892B35
:1023B00080933A020895809590913A0298239093E1
:1023C0003A02089510923A02089590913902892BA9
:1023D00080933902089580959091390298239093C3
:1023E0003902089510923902089590913802892B8C
:1023F00080933802089580959091380298239093A5
:102400003802089510923802089580912F0208959D
:1024100008950C94081290912F02981721F0809340
:102420002F020C940912089580912F02882329F01D
:1024300010922F0280E00C9409120895E09100019F
:10244000F091010180913A028083E0910001F091C6
:102450000101808190913902892B8083E0910001F4
:10246000F0910101808190913802892B80839091B5
:102470002F02992381F0E0910001F0910101808108
:10248000892B808380910001909101010E94251386
:1024900081110E94141280910001909101010C940D
:1024A0009E0708950C94511298E0899F9001112481
:1024B000622B60932E020E944D1080912E02859512
:1024C000859585950C94521210922E0280E00C9402
:1024D000521290912E028095892380932E02282FEC
:1024E000277071F4282F082E000C330B9217130657
:1024F00039F08595859585950E946E100C9464122F
:10250000089590E080E00E94411B21E08C3E9E4FA8
:1025100009F020E0822F089582E090E00C94391BAE
:1025200083E090E00C94391BCF9384E090E00E940C
:10253000391BC82F81E290E00E94391B982F8C2F05
:10254000CF910895CF93C92F682F84E090E00E9427
:10255000471B6C2F81E290E0CF910C94471BAB019D
:10256000BC018FE090E00C94591BAB01BC0183E1EE
:1025700090E00C94591B60E070E0CB010C94B51214
:1025800060E070E0CB010E94AF120C94BB126CEEC5
:102590007EEF90E080E00E94651B60E082E090E0CA
:1025A0000E94471B60E083E090E00E94471B10926E
:1025B0002A0210922B0210922C0210922D0260E03F
:1025C00084E090E00E94471B60E081E290E00E947E
:1025D000471B60E085E090E00E94471B60E086E0DA
:1025E00090E00E94471B6FEF87E090E00E94471B3E
:1025F00040E050E0BA0188E090E00E94591B60E0A2
:102600008DE090E00E94471B40E050E0BA0188E175
:1026100090E00E94591B60E087E190E00E94471B18
:1026200040E050E0BA018CE190E00E94591B60E06C
:1026300080E290E00E94471B0C94C0120C94C712D9
:10264000682F8EE090E00C94471B9C012E5F3F4F5B
:10265000AC01485F5F4F80E02417350709F4089507
:10266000F90191919F019923B9F38F5FF5CF9C01F7
:10267000FC0132969FEF80E04191461751F09F3F59
:1026800019F4411101C0982F8F5F8630A9F79F3F41
:1026900009F40895290F311D97FD3A95F9016283D8
:1026A0000895FC01329608962191261303C0DF019C
:1026B00011971C92E817F907B9F708950C9437138E
:1026C0000C945113029626E0FC0111922A95E9F729
:1026D0000895089508950C946A130E946B138091D5
:1026E0008202843049F110923C0288E190E020E4BB
:1026F0000FB6F894A895809360000FBE20936000F9
:1027000080E00E94D2010E946B1383B7817F8460B6
:1027100083BF83B7816083BF7894889583B78E7FAA
:1027200083BF0FB6F894A89580916000886180936C
:102730006000109260000FBE08950895CF930E942C
:1027400069130E9487040E949D13C0E08C2F0E9491
:102750002F04672B682B692B31F4CF5FC630B1F79C
:1027600080E0CF91089581E0FCCF08950C94B513DB
:102770000E94290C0E9492070E94D2010C94B61369
:102780001F921FB61F9211248F939F93AF93BF93F5
:1027900080913C02811113C080917802909179025E
:1027A000A0917A02B0917B024196A11DB11D809348
:1027B000780290937902A0937A02B0937B02BF9142
:1027C000AF919F918F911F901FBE1F90189582E02F
:1027D00084BD93E095BD9AEF97BD80936E000895F8
:1027E0002FB7F8948091780290917902A0917A02A3
:1027F000B0917B022FBF0895CF92DF92EF92FF92AC
:102800000F931F932FB7F89440917802509179025B
:1028100060917A0270917B022FBF6A017B01EE24E6
:10282000FF248C0130E020E0C016D106E206F3065A
:1028300050F0481B590BCA011F910F91FF90EF9068
:10284000DF90CF90089541505109F3CF78941F92B3
:102850001FB61F9211248F939F93AF93BF938091C4
:10286000780290917902A0917A02B0917B02019650
:10287000A11DB11D8093780290937902A0937A02F2
:10288000B0937B02BF91AF919F918F911F901FBE1C
:102890001F90189581E08093E00080E28093D8003B
:1028A0001092C9008FE19EE40197F1F700C000008B
:1028B00087E090EBDC0180938B0290938C02A093D5
:1028C0008D02B0938E0288E19CE00FB6F894A89533
:1028D000809360000FBE90936000FFCF0E94811232
:1028E000811102C00E941E130E948C1280933B0231
:1028F0000E94941290937D0280937C020E94901219
:10290000682F70E090E080E00C94EB0F809145021E
:1029100008950895CF93DF9300D00F92CDB7DEB71F
:1029200090918202943019F589837B836A8382E0D7
:102930008093E9008FEF9091E800815095FD06C0EB
:1029400095ED9A95F1F700008111F5CF8091E8009F
:1029500085FF0DC050E040E063E070E0CE010196DD
:102960000E94A2168091E8008E778093E8000F9075
:102970000F900F90DF91CF910895CF93DF93EC01EB
:102980000E948516823011F0843031F4BE0184E05B
:10299000DF91CF910C948A14DF91CF910895BC01FF
:1029A0006058710983E00C948A14CF93DF93EC0193
:1029B0000E948516823011F0843039F581E08093D1
:1029C000E9008FEF9091E800815095FD06C095EDEC
:1029D0009A95F1F700008111F5CF8091E80085FF0D
:1029E00014C050E040E068E070E0CE010E94A21602
:1029F0008091E8008E778093E80088E0FE01ADE3E7
:102A0000B2E001900D928A95E1F7DF91CF910895A0
:102A100080918102811109C00E9432180E948F1892
:102A20008091E20084608093E20008951092810218
:102A30000895089508950C94B81342E061EC81E084
:102A40000E94AE1742E261EC82E00C94AE178091D6
:102A50008402833009F45FC030F48130C1F18230E8
:102A600009F49BC008958A3009F487C08B3009F4BB
:102A70006DC0893009F04EC080918302813209F027
:102A800049C08091870290918802029708F042C065
:102A90008091E800877F8093E8008091E80082FFC2
:102AA00035C09091F3008091F200029729F4809153
:102AB000F1008B7F813021F48091F10080934502F9
:102AC0008091E8008B778093E8000C94E217809166
:102AD0008302813AF9F48091E800877F8093E800CF
:102AE0008091870290918802892B61F468E08DE3E0
:102AF00092E070E00E94F1168091E8008B7780935D
:102B0000E800089560E090E080E0F3CF80918202D9
:102B10008111C3CF089580918302813AD9F78091C2
:102B2000870290918802892BA9F78091E800877F1E
:102B30008093E8008091E80080FFFCCF80910C0139
:102B40008093F1008091E8008E77BDCF8091830261
:102B5000813201F78091870290918802892BD1F60A
:102B60008091E800877F8093E8000E94E2178091BF
:102B7000850280930C010C94290C80918302813290
:102B800049F68091E800877F8093E8000E94E21771
:102B90008091860280934602089580918302813A53
:102BA00009F0B8CF8091E800877F8093E80080919A
:102BB000E80080FFFCCF80914602C2CF84B7877FB8
:102BC00084BF0FB6F894A8958091600088618093C7
:102BD0006000109260000FBE80E890E00FB6F8949D
:102BE00080936100909361000FBE0E94E3070E94F2
:102BF00032180E948F188091E20084608093E20076
:102C000078940E94181B0E94EB0782E091E00E94DA
:102C10008D0780918202853019F00E94F307F9CF69
:102C20000E946D1380918002882399F30E949E1365
:102C3000882379F30E948C16ECCF0C941F16292F51
:102C400033272330310519F168F42130310509F4B7
:102C50004AC02230310509F44BC090E080E030E0FA
:102C600020E028C02132310579F122323105A9F75F
:102C700080E490E02DE232E061157105D9F086E341
:102C800090E027EF31E061307105A1F0E6CF9927A0
:102C90008130910599F0009741F08230910589F0DB
:102CA0000397D9F6E8E7F1E002C0E6EAF1E08491A3
:102CB00090E09F01FA01318320830895EAE8F1E072
:102CC000F6CFEEE7F1E0F3CF89E090E02CEB31E0D6
:102CD0006115710579F389E090E025ED31E061300F
:102CE000710541F3BACF82E190E025EE31E0E2CF09
:102CF0008BE390E02AEA31E0DDCF809182028430DC
:102D000011F482E0089581E00895809147028111D5
:102D100002C00C947D16089580E189BD82E189BDD1
:102D200009B400FEFDCF8091D8008F7D8093D8003C
:102D30008091E00082608093E0008091E00081FD5E
:102D4000FCCF0895AF92BF92CF92DF92FF920F9384
:102D50001F93CF93DF936C01EB018A010E9401184E
:102D6000F82E811123C00115110539F0F801808179
:102D70009181C81BD90BC80ED91EB12CA12C20974C
:102D8000A9F08091E80085FD22C08091E8008E774F
:102D90008093E80001151105A1F0F801808191816F
:102DA000A80EB91EB182A08285E0F82E8F2DDF918A
:102DB000CF911F910F91FF90DF90CF90BF90AF9078
:102DC00008950E9401188823D1F2F82EEFCFF60162
:102DD00081916F018093F1002197FFEFAF1ABF0A35
:102DE000CECFFC018091890290918A0286179707C5
:102DF000A0F06115710529F49091E8009E779093F9
:102E0000E80090E06115710551F4911108C08091BE
:102E1000E80082FF34C080E00895BC01F2CF8091C9
:102E200082028823C1F18530C1F18091E80083FDE1
:102E300030C08091E80082FDEACF8091E80080FFF9
:102E4000E1CF8091F3002091F200382F61157105D8
:102E500019F02830310558F091E02830310509F09B
:102E600090E02091E8002E772093E800CBCF81916D
:102E70008093F100615071092F5F3F4FE7CF809140
:102E80008202882341F0853041F08091E80083FF81
:102E9000BECF81E0089582E0089583E00895FC01AB
:102EA0008091890290918A0286179707A0F0611598
:102EB000710529F48091E8008E778093E80090E016
:102EC0006115710551F4911108C08091E80082FFED
:102ED00035C080E00895BC01F2CF80918202882342
:102EE000C9F18530C9F18091E80083FD31C080913E
:102EF000E80082FDEACF8091E80080FFE1CF809179
:102F0000F3002091F200382F6115710519F0283077
:102F1000310558F091E02830310509F090E08091BA
:102F2000E8008E778093E800CBCF84918093F10006
:102F30003196615071092F5F3F4FE6CF8091820239
:102F4000882341F0853041F08091E80083FFBDCFB8
:102F500081E0089582E0089583E00895982F9730E6
:102F600028F08F708093E90081E008959093E90044
:102F7000242F762F50E0981731F07091EC002091BB
:102F8000ED005091F00021FD02C09F5FE8CF30912D
:102F9000EB003E7F3093EB003091ED003D7F3093AE
:102FA000ED003091EB0031603093EB007093EC005A
:102FB0002093ED005093F0002091EE0027FDE5CF27
:102FC00080E008958091830287FF13C08091E8001C
:102FD00082FF06C08091E8008B778093E80004C0F0
:102FE000809182028111F2CF08958091820288231C
:102FF000D9F38091E80080FFF8CF8091E8008E77C8
:10300000ECCF2091E4003091E50095E6A9012091F4
:10301000EC00822F817020FF06C08091E80080FFC5
:1030200006C080E008952091E80022FD1AC080913A
:103030008202882389F0853089F08091EB0085FD3C
:103040000FC02091E4003091E50042175307F9F2D8
:103050009150E1F684E0089582E0089583E00895B8
:1030600081E008950E94A0180E94A818E0EEF0E008
:10307000808181608083E8EDF0E080818F778083BC
:1030800019BCA7EDB0E08C918E7F8C9380818F7EF0
:1030900080831092810208950F931F93CF93DF9343
:1030A0000E94A0180E94A818C8EDD0E088818F77F0
:1030B000888388818068888388818F7D888319BC14
:1030C0001092820210927E021092800210927F0271
:1030D00000EE10E0F80180818B7F80838881816021
:1030E000888342E060E080E00E94AE17E1EEF0E00D
:1030F00080818E7F8083E2EEF0E08081816080833A
:10310000808188608083F80180818E7F80838881C0
:1031100080618883DF91CF911F910F910895E8ED31
:10312000F0E080818F7E8083E7EDF0E08081816038
:10313000808384E082BF81E0809381020C944C18EC
:10314000E8EDF0E080818E7F80831092E2000895A8
:103150001092DA001092E10008951F920F920FB6BC
:103160000F9211242F933F934F935F936F937F930D
:103170008F939F93AF93BF93EF93FF938091E10061
:1031800082FF0BC08091E20082FF07C08091E100C6
:103190008B7F8093E1000E94171B8091DA0080FFF3
:1031A00019C08091D80080FF15C08091DA008E7F11
:1031B0008093DA008091D90080FF96C080E189BDBC
:1031C00082E189BD09B400FEFDCF81E080938202D7
:1031D0000E9408158091E10080FF19C08091E200F3
:1031E00080FF15C08091E2008E7F8093E200809185
:1031F000E20080618093E2008091D8008062809339
:10320000D80019BC85E0809382020E941A15809133
:10321000E10084FF2BC08091E20084FF27C080E1A1
:1032200089BD82E189BD89B5982F917080FFFBCF60
:103230008091D8008F7D8093D8008091E1008F7EAF
:103240008093E1008091E2008F7E8093E200809184
:10325000E20081608093E20080917E02882309F47D
:1032600049C084E0809382020E941B158091E10096
:1032700083FF29C08091E20083FF25C08091E10097
:10328000877F8093E10082E08093820210927E0229
:103290008091E1008E7F8093E1008091E2008E7F3B
:1032A0008093E2008091E20080618093E20042E03E
:1032B00060E080E00E94AE178091F000886080930B
:1032C000F0000E941915FF91EF91BF91AF919F916E
:1032D0008F917F916F915F914F913F912F910F90BF
:1032E0000FBE0F901F90189519BC109282020E9479
:1032F000161570CF8091E30087FD93E090938202D2
:10330000B3CF1F920F920FB60F9211242F933F93BA
:103310004F935F936F937F938F939F93AF93BF93DD
:10332000CF93DF93EF93FF93D091E900DF7080910B
:10333000EC00C82FC17080FDC0E81092E9008091B8
:10334000F000877F8093F00078940E94C519109256
:10335000E9008091F00088608093F000CD2BCF7061
:10336000C093E900FF91EF91DF91CF91BF91AF91B1
:103370009F918F917F916F915F914F913F912F918D
:103380000F900FBE0F901F9018951F93CF93DF9350
:10339000CDB7DEB7AA970FB6F894DEBF0FBECDBF8C
:1033A00083E892E02091F100FC012193CF01F2E04B
:1033B0008B389F07B9F70E9427158091E80083FF9B
:1033C0001EC180918302909184029A3008F017C147
:1033D000E92FF0E0E556F44E0C94331B803899F059
:1033E000823809F00CC1809187028F70873008F015
:1033F00006C18093E9008091EB0085FB882780F966
:103400001092E90006C080917F0290918002911194
:1034100082609091E800977F9093E8008093F1009C
:103420001092F1008091E8008E77E5C0882309F4BE
:10343000D3C0823009F0E3C0809185028111D6C0EB
:10344000809187028F702FEF280F263008F0D7C0A9
:103450008093E9002091EB0020FFC8C0933031F445
:103460008091EB0080628093EB00C0C09091EB00F4
:1034700090619093EB0021E030E001C0220F8A952B
:10348000EAF72093EA001092EA008091EB0088604E
:10349000EACF8111B4C0109185021F778091E300BB
:1034A0008078812B8093E3008091E800877F809370
:1034B000E8000E94E2178091E80080FFFCCF809135
:1034C000E30080688093E30082E0111183E0809341
:1034D000820295C08058823008F091C080918502A8
:1034E000909186028C3D23E09207A1F583E08A83C8
:1034F0008AE289834FB7F894DE01139620E03EE01C
:1035000051E2E32FF0E050935700E49120FF03C015
:10351000E295EF703F5FEF708E2F90E0EA30C0F0E1
:10352000C7968D939D932F5F243159F74FBF80919C
:10353000E800877F8093E8006AE270E0CE010196A0
:103540000E94F1168091E8008B778093E80057C0C5
:10355000C096E7CF6091870270918802AE014F5FFD
:103560005F4F0E941D16BC01892B09F448C0909141
:10357000E800977F9093E80089819A810E944F1715
:10358000E1CF8038E1F58091E800877F8093E80003
:1035900080917E028093F10045CF811130C09091DF
:1035A0008502923060F58091E800877F8093E80083
:1035B00090937E020E94E21780917E02882311F090
:1035C00084E005C08091E30087FDFACF81E080931D
:1035D00082020E941D1513C080918502813079F40A
:1035E00081E0933009F080E0809380021092E9003E
:1035F0008091E800877F8093E8000E94E217809125
:10360000E80083FF0AC08091E800877F8093E8008C
:103610008091EB0080628093EB00AA960FB6F8943D
:10362000DEBF0FBECDBFDF91CF911F9108950895EA
:10363000CF93809182028823A1F0C091E900CF70DE
:103640009091EC00892F817090FD80E8C82B10923A
:10365000E9008091E80083FD0E94C519CF70C093F6
:10366000E900CF910895EE0FFF1F0590F491E02D32
:103670000994F999FECF92BD81BDF89A992780B53A
:103680000895A8E1B0E042E050E00C946D1B262FB5
:10369000F999FECF92BD81BDF89A019700B4021648
:1036A00039F01FBA20BD0FB6F894FA9AF99A0FBEF6
:1036B00008950396272F0E94481B0E94471B252F21
:1036C0000E94481B242F0C94481B0196272F0E9410
:1036D000481B0C94471BDC01CB01FC01F999FECF80
:1036E00006C0F2BDE1BDF89A319600B40D9241508A
:1036F0005040B8F70895F894FFCF160A160A6E0ADC
:103700006E0AC00A430A430A430ADC0A680B770BB5
:10371000770BD30B430A430ADC0B380C380C410CF3
:10372000410C430C410C410C410C380C380C480C3A
:10373000410C410C480CEE19161AFF1A161AFF1A02
:0A374000491A6A1AFF1AC11ACD1ABD
:10374A0030028614D5148914CF14BD1401E200E99D
:10375A0000EA00B500B600B700CD008301CC008AAC
:10376A000192019401210223022402250226022742
:10377A00022A02B300B4006F007000818283F6F55A
:10378A00F4F1F067663630C6373332929395943146
:10379A003534F79796E200E900EA00B500B600B7BB
:1037AA0000CD008301CC008A0192019401210223F9
:1037BA000224022502260227022A02B300B4006F5D
:0637CA0000700081828303
:00000001FF
